{
  "contractName": "Token",
  "abi": [
    {
      "inputs": [],
      "stateMutability": "nonpayable",
      "type": "constructor"
    },
    {
      "anonymous": false,
      "inputs": [
        {
          "indexed": true,
          "internalType": "address",
          "name": "owner",
          "type": "address"
        },
        {
          "indexed": true,
          "internalType": "address",
          "name": "spender",
          "type": "address"
        },
        {
          "indexed": false,
          "internalType": "uint256",
          "name": "value",
          "type": "uint256"
        }
      ],
      "name": "Approval",
      "type": "event"
    },
    {
      "anonymous": false,
      "inputs": [
        {
          "indexed": true,
          "internalType": "address",
          "name": "from",
          "type": "address"
        },
        {
          "indexed": true,
          "internalType": "address",
          "name": "to",
          "type": "address"
        },
        {
          "indexed": false,
          "internalType": "uint256",
          "name": "value",
          "type": "uint256"
        }
      ],
      "name": "Transfer",
      "type": "event"
    },
    {
      "stateMutability": "payable",
      "type": "fallback",
      "payable": true
    },
    {
      "inputs": [],
      "name": "decimals",
      "outputs": [
        {
          "internalType": "uint256",
          "name": "",
          "type": "uint256"
        }
      ],
      "stateMutability": "view",
      "type": "function",
      "constant": true
    },
    {
      "inputs": [],
      "name": "name",
      "outputs": [
        {
          "internalType": "string",
          "name": "",
          "type": "string"
        }
      ],
      "stateMutability": "view",
      "type": "function",
      "constant": true
    },
    {
      "inputs": [],
      "name": "owner",
      "outputs": [
        {
          "internalType": "address",
          "name": "",
          "type": "address"
        }
      ],
      "stateMutability": "view",
      "type": "function",
      "constant": true
    },
    {
      "inputs": [],
      "name": "symbol",
      "outputs": [
        {
          "internalType": "string",
          "name": "",
          "type": "string"
        }
      ],
      "stateMutability": "view",
      "type": "function",
      "constant": true
    },
    {
      "inputs": [],
      "name": "wei_equals",
      "outputs": [
        {
          "internalType": "uint256",
          "name": "",
          "type": "uint256"
        }
      ],
      "stateMutability": "view",
      "type": "function",
      "constant": true
    },
    {
      "inputs": [
        {
          "internalType": "uint256",
          "name": "_wei_equals",
          "type": "uint256"
        }
      ],
      "name": "setPrice",
      "outputs": [
        {
          "internalType": "uint256",
          "name": "",
          "type": "uint256"
        }
      ],
      "stateMutability": "nonpayable",
      "type": "function"
    },
    {
      "inputs": [],
      "name": "buyToken",
      "outputs": [
        {
          "internalType": "bool",
          "name": "",
          "type": "bool"
        }
      ],
      "stateMutability": "payable",
      "type": "function",
      "payable": true
    },
    {
      "inputs": [],
      "name": "totalSupply",
      "outputs": [
        {
          "internalType": "uint256",
          "name": "",
          "type": "uint256"
        }
      ],
      "stateMutability": "view",
      "type": "function",
      "constant": true
    },
    {
      "inputs": [
        {
          "internalType": "address",
          "name": "account",
          "type": "address"
        }
      ],
      "name": "balanceOf",
      "outputs": [
        {
          "internalType": "uint256",
          "name": "",
          "type": "uint256"
        }
      ],
      "stateMutability": "view",
      "type": "function",
      "constant": true
    },
    {
      "inputs": [
        {
          "internalType": "address",
          "name": "recipient",
          "type": "address"
        },
        {
          "internalType": "uint256",
          "name": "amount",
          "type": "uint256"
        }
      ],
      "name": "transfer",
      "outputs": [
        {
          "internalType": "bool",
          "name": "",
          "type": "bool"
        }
      ],
      "stateMutability": "nonpayable",
      "type": "function"
    },
    {
      "inputs": [
        {
          "internalType": "address",
          "name": "owner_",
          "type": "address"
        },
        {
          "internalType": "address",
          "name": "spender",
          "type": "address"
        }
      ],
      "name": "allowance",
      "outputs": [
        {
          "internalType": "uint256",
          "name": "",
          "type": "uint256"
        }
      ],
      "stateMutability": "view",
      "type": "function",
      "constant": true
    },
    {
      "inputs": [
        {
          "internalType": "address",
          "name": "spender",
          "type": "address"
        },
        {
          "internalType": "uint256",
          "name": "amount",
          "type": "uint256"
        }
      ],
      "name": "approve",
      "outputs": [
        {
          "internalType": "bool",
          "name": "",
          "type": "bool"
        }
      ],
      "stateMutability": "nonpayable",
      "type": "function"
    },
    {
      "inputs": [
        {
          "internalType": "address",
          "name": "tokenOwner",
          "type": "address"
        },
        {
          "internalType": "address",
          "name": "recipient",
          "type": "address"
        },
        {
          "internalType": "uint256",
          "name": "amount",
          "type": "uint256"
        }
      ],
      "name": "transferFrom",
      "outputs": [
        {
          "internalType": "bool",
          "name": "",
          "type": "bool"
        }
      ],
      "stateMutability": "nonpayable",
      "type": "function"
    }
  ],
  "bytecode": "0x608060405260646007553480156200001657600080fd5b506040518060400160405280601181526020017f546f6b656e206d61646520627920616c6900000000000000000000000000000081525060049080519060200190620000649291906200021a565b506040518060400160405280600381526020017f534148000000000000000000000000000000000000000000000000000000000081525060059080519060200190620000b29291906200021a565b50601260068190555033600360006101000a81548173ffffffffffffffffffffffffffffffffffffffff021916908373ffffffffffffffffffffffffffffffffffffffff160217905550600654600a6200010d919062000353565b6127106200011c919062000490565b600281905550600254600080600360009054906101000a900473ffffffffffffffffffffffffffffffffffffffff1673ffffffffffffffffffffffffffffffffffffffff1673ffffffffffffffffffffffffffffffffffffffff16815260200190815260200160002081905550600360009054906101000a900473ffffffffffffffffffffffffffffffffffffffff1673ffffffffffffffffffffffffffffffffffffffff163073ffffffffffffffffffffffffffffffffffffffff167fddf252ad1be2c89b69c2b068fc378daa952ba7f163c4a11628f55a4df523b3ef6002546040516200020c9190620002db565b60405180910390a36200059c565b8280546200022890620004fb565b90600052602060002090601f0160209004810192826200024c576000855562000298565b82601f106200026757805160ff191683800117855562000298565b8280016001018555821562000298579182015b82811115620002975782518255916020019190600101906200027a565b5b509050620002a79190620002ab565b5090565b5b80821115620002c6576000816000905550600101620002ac565b5090565b620002d581620004f1565b82525050565b6000602082019050620002f26000830184620002ca565b92915050565b6000808291508390505b60018511156200034a5780860481111562000322576200032162000531565b5b6001851615620003325780820291505b808102905062000342856200058f565b945062000302565b94509492505050565b60006200036082620004f1565b91506200036d83620004f1565b92506200039c7fffffffffffffffffffffffffffffffffffffffffffffffffffffffffffffffff8484620003a4565b905092915050565b600082620003b6576001905062000489565b81620003c6576000905062000489565b8160018114620003df5760028114620003ea5762000420565b600191505062000489565b60ff841115620003ff57620003fe62000531565b5b8360020a91508482111562000419576200041862000531565b5b5062000489565b5060208310610133831016604e8410600b84101617156200045a5782820a90508381111562000454576200045362000531565b5b62000489565b620004698484846001620002f8565b9250905081840481111562000483576200048262000531565b5b81810290505b9392505050565b60006200049d82620004f1565b9150620004aa83620004f1565b9250817fffffffffffffffffffffffffffffffffffffffffffffffffffffffffffffffff0483118215151615620004e657620004e562000531565b5b828202905092915050565b6000819050919050565b600060028204905060018216806200051457607f821691505b602082108114156200052b576200052a62000560565b5b50919050565b7f4e487b7100000000000000000000000000000000000000000000000000000000600052601160045260246000fd5b7f4e487b7100000000000000000000000000000000000000000000000000000000600052602260045260246000fd5b60008160011c9050919050565b61184580620005ac6000396000f3fe6080604052600436106100c65760003560e01c8063844a36041161007f57806395d89b411161005957806395d89b4114610294578063a4821719146102bf578063a9059cbb146102dd578063dd62ed3e1461031a576100c7565b8063844a3604146102015780638da5cb5b1461022c57806391b7f5ed14610257576100c7565b806306fdde03146100c9578063095ea7b3146100f457806318160ddd1461013157806323b872dd1461015c578063313ce5671461019957806370a08231146101c4576100c7565b5b005b3480156100d557600080fd5b506100de610357565b6040516100eb91906114c8565b60405180910390f35b34801561010057600080fd5b5061011b60048036038101906101169190611221565b6103e5565b60405161012891906114ad565b60405180910390f35b34801561013d57600080fd5b506101466105bc565b60405161015391906115aa565b60405180910390f35b34801561016857600080fd5b50610183600480360381019061017e91906111d2565b6105c6565b60405161019091906114ad565b60405180910390f35b3480156101a557600080fd5b506101ae61090d565b6040516101bb91906115aa565b60405180910390f35b3480156101d057600080fd5b506101eb60048036038101906101e6919061116d565b610913565b6040516101f891906115aa565b60405180910390f35b34801561020d57600080fd5b5061021661095b565b60405161022391906115aa565b60405180910390f35b34801561023857600080fd5b50610241610961565b60405161024e9190611492565b60405180910390f35b34801561026357600080fd5b5061027e6004803603810190610279919061125d565b610987565b60405161028b91906115aa565b60405180910390f35b3480156102a057600080fd5b506102a9610a2a565b6040516102b691906114c8565b60405180910390f35b6102c7610ab8565b6040516102d491906114ad565b60405180910390f35b3480156102e957600080fd5b5061030460048036038101906102ff9190611221565b610dce565b60405161031191906114ad565b60405180910390f35b34801561032657600080fd5b50610341600480360381019061033c9190611196565b6110bc565b60405161034e91906115aa565b60405180910390f35b6004805461036490611740565b80601f016020809104026020016040519081016040528092919081815260200182805461039090611740565b80156103dd5780601f106103b2576101008083540402835291602001916103dd565b820191906000526020600020905b8154815290600101906020018083116103c057829003601f168201915b505050505081565b600080339050600073ffffffffffffffffffffffffffffffffffffffff168173ffffffffffffffffffffffffffffffffffffffff16141561045b576040517f08c379a00000000000000000000000000000000000000000000000000000000081526004016104529061150a565b60405180910390fd5b600073ffffffffffffffffffffffffffffffffffffffff168473ffffffffffffffffffffffffffffffffffffffff1614156104cb576040517f08c379a00000000000000000000000000000000000000000000000000000000081526004016104c29061154a565b60405180910390fd5b82600160008373ffffffffffffffffffffffffffffffffffffffff1673ffffffffffffffffffffffffffffffffffffffff16815260200190815260200160002060008673ffffffffffffffffffffffffffffffffffffffff1673ffffffffffffffffffffffffffffffffffffffff168152602001908152602001600020819055508373ffffffffffffffffffffffffffffffffffffffff168173ffffffffffffffffffffffffffffffffffffffff167f8c5be1e5ebec7d5bd14f71427d1e84f3dd0314c0f7b2291e5b200ac8c7c3b925856040516105a991906115aa565b60405180910390a3600191505092915050565b6000600254905090565b6000803390506000600160008773ffffffffffffffffffffffffffffffffffffffff1673ffffffffffffffffffffffffffffffffffffffff16815260200190815260200160002060008373ffffffffffffffffffffffffffffffffffffffff1673ffffffffffffffffffffffffffffffffffffffff16815260200190815260200160002054905083811161068f576040517f08c379a00000000000000000000000000000000000000000000000000000000081526004016106869061156a565b60405180910390fd5b838161069b9190611691565b9050836000808873ffffffffffffffffffffffffffffffffffffffff1673ffffffffffffffffffffffffffffffffffffffff168152602001908152602001600020546106e79190611691565b6000808873ffffffffffffffffffffffffffffffffffffffff1673ffffffffffffffffffffffffffffffffffffffff16815260200190815260200160002081905550836000808773ffffffffffffffffffffffffffffffffffffffff1673ffffffffffffffffffffffffffffffffffffffff1681526020019081526020016000205461077391906115e1565b6000808773ffffffffffffffffffffffffffffffffffffffff1673ffffffffffffffffffffffffffffffffffffffff168152602001908152602001600020819055508473ffffffffffffffffffffffffffffffffffffffff168673ffffffffffffffffffffffffffffffffffffffff167fddf252ad1be2c89b69c2b068fc378daa952ba7f163c4a11628f55a4df523b3ef8660405161081291906115aa565b60405180910390a380600160008873ffffffffffffffffffffffffffffffffffffffff1673ffffffffffffffffffffffffffffffffffffffff16815260200190815260200160002060008473ffffffffffffffffffffffffffffffffffffffff1673ffffffffffffffffffffffffffffffffffffffff168152602001908152602001600020819055508473ffffffffffffffffffffffffffffffffffffffff168673ffffffffffffffffffffffffffffffffffffffff167f8c5be1e5ebec7d5bd14f71427d1e84f3dd0314c0f7b2291e5b200ac8c7c3b925866040516108f891906115aa565b60405180910390a36001925050509392505050565b60065481565b60008060008373ffffffffffffffffffffffffffffffffffffffff1673ffffffffffffffffffffffffffffffffffffffff168152602001908152602001600020549050919050565b60075481565b600360009054906101000a900473ffffffffffffffffffffffffffffffffffffffff1681565b6000600360009054906101000a900473ffffffffffffffffffffffffffffffffffffffff1673ffffffffffffffffffffffffffffffffffffffff163373ffffffffffffffffffffffffffffffffffffffff1614610a19576040517f08c379a0000000000000000000000000000000000000000000000000000000008152600401610a109061158a565b60405180910390fd5b816007819055506007549050919050565b60058054610a3790611740565b80601f0160208091040260200160405190810160405280929190818152602001828054610a6390611740565b8015610ab05780601f10610a8557610100808354040283529160200191610ab0565b820191906000526020600020905b815481529060010190602001808311610a9357829003601f168201915b505050505081565b600080339050600060075434610ace9190611637565b9050600073ffffffffffffffffffffffffffffffffffffffff168273ffffffffffffffffffffffffffffffffffffffff161415610b40576040517f08c379a0000000000000000000000000000000000000000000000000000000008152600401610b379061152a565b60405180910390fd5b80600080600360009054906101000a900473ffffffffffffffffffffffffffffffffffffffff1673ffffffffffffffffffffffffffffffffffffffff1673ffffffffffffffffffffffffffffffffffffffff1681526020019081526020016000205411610be2576040517f08c379a0000000000000000000000000000000000000000000000000000000008152600401610bd9906114ea565b60405180910390fd5b80600080600360009054906101000a900473ffffffffffffffffffffffffffffffffffffffff1673ffffffffffffffffffffffffffffffffffffffff1673ffffffffffffffffffffffffffffffffffffffff16815260200190815260200160002054610c4e9190611691565b600080600360009054906101000a900473ffffffffffffffffffffffffffffffffffffffff1673ffffffffffffffffffffffffffffffffffffffff1673ffffffffffffffffffffffffffffffffffffffff16815260200190815260200160002081905550806000808473ffffffffffffffffffffffffffffffffffffffff1673ffffffffffffffffffffffffffffffffffffffff16815260200190815260200160002054610cfc91906115e1565b6000808473ffffffffffffffffffffffffffffffffffffffff1673ffffffffffffffffffffffffffffffffffffffff168152602001908152602001600020819055508173ffffffffffffffffffffffffffffffffffffffff16600360009054906101000a900473ffffffffffffffffffffffffffffffffffffffff1673ffffffffffffffffffffffffffffffffffffffff167fddf252ad1be2c89b69c2b068fc378daa952ba7f163c4a11628f55a4df523b3ef83604051610dbd91906115aa565b60405180910390a360019250505090565b600080339050600073ffffffffffffffffffffffffffffffffffffffff168173ffffffffffffffffffffffffffffffffffffffff161415610e44576040517f08c379a0000000000000000000000000000000000000000000000000000000008152600401610e3b9061152a565b60405180910390fd5b600073ffffffffffffffffffffffffffffffffffffffff168473ffffffffffffffffffffffffffffffffffffffff161415610eb4576040517f08c379a0000000000000000000000000000000000000000000000000000000008152600401610eab9061152a565b60405180910390fd5b826000808373ffffffffffffffffffffffffffffffffffffffff1673ffffffffffffffffffffffffffffffffffffffff1681526020019081526020016000205411610f34576040517f08c379a0000000000000000000000000000000000000000000000000000000008152600401610f2b906114ea565b60405180910390fd5b826000808373ffffffffffffffffffffffffffffffffffffffff1673ffffffffffffffffffffffffffffffffffffffff16815260200190815260200160002054610f7e9190611691565b6000808373ffffffffffffffffffffffffffffffffffffffff1673ffffffffffffffffffffffffffffffffffffffff16815260200190815260200160002081905550826000808673ffffffffffffffffffffffffffffffffffffffff1673ffffffffffffffffffffffffffffffffffffffff1681526020019081526020016000205461100a91906115e1565b6000808673ffffffffffffffffffffffffffffffffffffffff1673ffffffffffffffffffffffffffffffffffffffff168152602001908152602001600020819055508373ffffffffffffffffffffffffffffffffffffffff168173ffffffffffffffffffffffffffffffffffffffff167fddf252ad1be2c89b69c2b068fc378daa952ba7f163c4a11628f55a4df523b3ef856040516110a991906115aa565b60405180910390a3600191505092915050565b6000600160008473ffffffffffffffffffffffffffffffffffffffff1673ffffffffffffffffffffffffffffffffffffffff16815260200190815260200160002060008373ffffffffffffffffffffffffffffffffffffffff1673ffffffffffffffffffffffffffffffffffffffff16815260200190815260200160002054905092915050565b600081359050611152816117e1565b92915050565b600081359050611167816117f8565b92915050565b60006020828403121561117f57600080fd5b600061118d84828501611143565b91505092915050565b600080604083850312156111a957600080fd5b60006111b785828601611143565b92505060206111c885828601611143565b9150509250929050565b6000806000606084860312156111e757600080fd5b60006111f586828701611143565b935050602061120686828701611143565b925050604061121786828701611158565b9150509250925092565b6000806040838503121561123457600080fd5b600061124285828601611143565b925050602061125385828601611158565b9150509250929050565b60006020828403121561126f57600080fd5b600061127d84828501611158565b91505092915050565b61128f816116c5565b82525050565b61129e816116d7565b82525050565b60006112af826115c5565b6112b981856115d0565b93506112c981856020860161170d565b6112d2816117d0565b840191505092915050565b60006112ea6020836115d0565b91507f7472616e7366657220616d6f756e7420657865636465732062616c616e6365736000830152602082019050919050565b600061132a601d836115d0565b91507f617070726f76652066726f6d20746865207a65726f20616464726573730000006000830152602082019050919050565b600061136a6017836115d0565b91507f616464726573732073686f756c64206e6f7420626520300000000000000000006000830152602082019050919050565b60006113aa601d836115d0565b91507f417070726f76652066726f6d20746865207a65726f20616464726573730000006000830152602082019050919050565b60006113ea6021836115d0565b91507f5472616e7366657220616d6f756e74206578656364657320616c6c6f77616e6360008301527f65000000000000000000000000000000000000000000000000000000000000006020830152604082019050919050565b6000611450601c836115d0565b91507f4f6e6c79206f776e65722063616e2073657420746865207072696365000000006000830152602082019050919050565b61148c81611703565b82525050565b60006020820190506114a76000830184611286565b92915050565b60006020820190506114c26000830184611295565b92915050565b600060208201905081810360008301526114e281846112a4565b905092915050565b60006020820190508181036000830152611503816112dd565b9050919050565b600060208201905081810360008301526115238161131d565b9050919050565b600060208201905081810360008301526115438161135d565b9050919050565b600060208201905081810360008301526115638161139d565b9050919050565b60006020820190508181036000830152611583816113dd565b9050919050565b600060208201905081810360008301526115a381611443565b9050919050565b60006020820190506115bf6000830184611483565b92915050565b600081519050919050565b600082825260208201905092915050565b60006115ec82611703565b91506115f783611703565b9250827fffffffffffffffffffffffffffffffffffffffffffffffffffffffffffffffff0382111561162c5761162b611772565b5b828201905092915050565b600061164282611703565b915061164d83611703565b9250817fffffffffffffffffffffffffffffffffffffffffffffffffffffffffffffffff048311821515161561168657611685611772565b5b828202905092915050565b600061169c82611703565b91506116a783611703565b9250828210156116ba576116b9611772565b5b828203905092915050565b60006116d0826116e3565b9050919050565b60008115159050919050565b600073ffffffffffffffffffffffffffffffffffffffff82169050919050565b6000819050919050565b60005b8381101561172b578082015181840152602081019050611710565b8381111561173a576000848401525b50505050565b6000600282049050600182168061175857607f821691505b6020821081141561176c5761176b6117a1565b5b50919050565b7f4e487b7100000000000000000000000000000000000000000000000000000000600052601160045260246000fd5b7f4e487b7100000000000000000000000000000000000000000000000000000000600052602260045260246000fd5b6000601f19601f8301169050919050565b6117ea816116c5565b81146117f557600080fd5b50565b61180181611703565b811461180c57600080fd5b5056fea2646970667358221220685d31fde5ecb82de89e6ed0569b627956c7c5fd66396b72ca9938f269847ee064736f6c63430008000033",
  "immutableReferences": {},
  "source": " // SPDX-License-Identifier: MIT\r\n pragma solidity ^0.8.0;\r\ninterface IERC20{\r\n    function totalSupply() external view returns(uint256);\r\n    function balanceOf(address account) external view returns(uint256);\r\n    function transfer(address recipient,uint256 amount) external returns(bool);\r\n    function allowance(address owner,address spender) external view returns(uint256);\r\n    // This is to check that the person who we give Approval to transfer token fron \r\n    // our account.How many tokens Approval he still left;\r\n    function approve(address spender,uint256 amount) external returns(bool);\r\n    // This is to approve someone how to transfer certain amount of token from your \r\n    // account to someone else;\r\n    function transferFrom(address sender,address recipient,uint256 amount) external returns(bool);\r\n    // spender will use the function transferFrom to transfer amount;\r\n    event Transfer(address indexed from,address indexed to,uint256 value);\r\n    event Approval(address indexed owner,address indexed spender,uint256 value);\r\n}\r\ncontract Token is IERC20{\r\n    mapping (address=>uint256) private _balances;\r\n    mapping (address=>mapping(address=>uint256)) private _allowances;\r\n    \r\n    uint256 private _totalSupply;\r\n    address public owner;\r\n    \r\n    string public name;\r\n    string public symbol;\r\n    uint256 public decimals;\r\n    \r\n    constructor() public {\r\n        name=\"Token made by ali\";\r\n        symbol=\"SAH\";\r\n        decimals=18;\r\n        \r\n        owner=msg.sender;\r\n        \r\n        _totalSupply=10000*10**decimals;\r\n        _balances[owner]= _totalSupply;\r\n        \r\n        emit Transfer(address(this),owner,_totalSupply);\r\n    }\r\n    // 1 wei=100 Token \r\n    uint256 public wei_equals=100;\r\n    \r\n    \r\n    // There should be an additional method to adjust the price that allows the owner to adjust the price.\r\n    function setPrice(uint256 _wei_equals) external returns(uint256){\r\n        require(msg.sender==owner,\"Only owner can set the price\");\r\n        wei_equals=_wei_equals;\r\n        return wei_equals;\r\n    }\r\n    // . Anyone can get the token by paying against ether\r\n     function buyToken() public payable returns(bool){\r\n         address buyer=msg.sender;\r\n         uint256 amount=msg.value*wei_equals;\r\n         require(buyer!=address(0),\"address should not be 0\");\r\n         require(_balances[owner]>amount,\"transfer amount execdes balances\");\r\n         \r\n         _balances[owner]=_balances[owner]-amount;\r\n         \r\n         _balances[buyer]=_balances[buyer]+amount;\r\n         \r\n         emit Transfer(owner,buyer,amount);\r\n         return true;\r\n     }\r\n    //   Add fallback payable method to Issue token based on Ether received. Say 1 Ether = 100 tokens.\r\n    fallback() external payable{\r\n        }\r\n    function totalSupply() public view override returns(uint256){\r\n        return _totalSupply;\r\n    }\r\n     function balanceOf(address account) public override view returns(uint256){\r\n         return _balances[account];\r\n     }\r\n     function transfer(address recipient,uint256 amount) public override returns(bool){\r\n         address sender=msg.sender;\r\n         require(sender!=address(0),\"address should not be 0\");\r\n         require(recipient!=address(0),\"address should not be 0\");\r\n         require(_balances[sender]>amount,\"transfer amount execdes balances\");\r\n         \r\n         _balances[sender]=_balances[sender]-amount;\r\n         \r\n         _balances[recipient]=_balances[recipient]+amount;\r\n         \r\n         emit Transfer(sender,recipient,amount);\r\n         return true;\r\n     }\r\n      function allowance(address owner_,address spender) public view virtual override returns(uint256){\r\n          return _allowances[owner_][spender];\r\n      }\r\n      \r\n       function approve(address spender,uint256 amount) public virtual override returns(bool){\r\n           address tokenOwner=msg.sender;\r\n           require(tokenOwner!=address(0),\"approve from the zero address\");\r\n           require(spender!=address(0),\"Approve from the zero address\");\r\n           \r\n           _allowances[tokenOwner][spender]=amount;\r\n           emit Approval(tokenOwner,spender,amount);\r\n           return true;\r\n           \r\n       }\r\n       \r\n       function transferFrom(address tokenOwner,address recipient,uint256 amount) public virtual override returns(bool){\r\n       address spender=msg.sender;\r\n       uint256 _allowance=_allowances[tokenOwner][spender];\r\n       require(_allowance>amount,\"Transfer amount execdes allowance\");\r\n           _allowance=_allowance-amount;\r\n           _balances[tokenOwner]=_balances[tokenOwner]-amount;\r\n           _balances[recipient]=_balances[recipient]+amount;\r\n             emit Transfer(tokenOwner,recipient,amount);\r\n             _allowances[tokenOwner][spender]=_allowance;\r\n             emit Approval(tokenOwner,recipient,amount);\r\n         return true;\r\n           \r\n       }\r\n}\r\n ",
  "sourcePath": "D:\\NOTES\\Project_ERC20_DAPP\\contracts\\Token.sol",
  "compiler": {
    "name": "solc",
    "version": "0.8.0+commit.c7dfd78e.Emscripten.clang"
  },
  "schemaVersion": "3.4.3",
  "updatedAt": "2021-10-05T05:39:31.600Z",
  "networkType": "ethereum",
  "devdoc": {
    "kind": "dev",
    "methods": {},
    "version": 1
  },
  "userdoc": {
    "kind": "user",
    "methods": {},
    "version": 1
  }
}